{
  "_format": "hh-sol-artifact-1",
  "contractName": "BettingCrocPresale",
  "sourceName": "contracts/Presale.sol",
  "abi": [
    {
      "inputs": [
        {
          "internalType": "address",
          "name": "_tokenAddress",
          "type": "address"
        }
      ],
      "stateMutability": "nonpayable",
      "type": "constructor"
    },
    {
      "inputs": [],
      "name": "areTokensClaimable",
      "outputs": [
        {
          "internalType": "bool",
          "name": "",
          "type": "bool"
        }
      ],
      "stateMutability": "view",
      "type": "function"
    },
    {
      "inputs": [
        {
          "internalType": "address",
          "name": "",
          "type": "address"
        }
      ],
      "name": "balances",
      "outputs": [
        {
          "internalType": "uint256",
          "name": "",
          "type": "uint256"
        }
      ],
      "stateMutability": "view",
      "type": "function"
    },
    {
      "inputs": [],
      "name": "burnRemainingTokens",
      "outputs": [],
      "stateMutability": "nonpayable",
      "type": "function"
    },
    {
      "inputs": [
        {
          "internalType": "uint256",
          "name": "_amount",
          "type": "uint256"
        }
      ],
      "name": "buyTokens",
      "outputs": [],
      "stateMutability": "payable",
      "type": "function"
    },
    {
      "inputs": [],
      "name": "claimTokens",
      "outputs": [],
      "stateMutability": "nonpayable",
      "type": "function"
    },
    {
      "inputs": [],
      "name": "getAreTokensClaimable",
      "outputs": [
        {
          "internalType": "bool",
          "name": "",
          "type": "bool"
        }
      ],
      "stateMutability": "view",
      "type": "function"
    },
    {
      "inputs": [
        {
          "internalType": "address",
          "name": "_address",
          "type": "address"
        }
      ],
      "name": "getBalance",
      "outputs": [
        {
          "internalType": "uint256",
          "name": "",
          "type": "uint256"
        }
      ],
      "stateMutability": "view",
      "type": "function"
    },
    {
      "inputs": [],
      "name": "getTotalPresaleTokensRemaining",
      "outputs": [
        {
          "internalType": "uint256",
          "name": "",
          "type": "uint256"
        }
      ],
      "stateMutability": "view",
      "type": "function"
    },
    {
      "inputs": [],
      "name": "owner",
      "outputs": [
        {
          "internalType": "address payable",
          "name": "",
          "type": "address"
        }
      ],
      "stateMutability": "view",
      "type": "function"
    },
    {
      "inputs": [],
      "name": "presalePrice",
      "outputs": [
        {
          "internalType": "uint256",
          "name": "",
          "type": "uint256"
        }
      ],
      "stateMutability": "view",
      "type": "function"
    },
    {
      "inputs": [],
      "name": "toggleAreTokensClaimable",
      "outputs": [],
      "stateMutability": "nonpayable",
      "type": "function"
    },
    {
      "inputs": [],
      "name": "token",
      "outputs": [
        {
          "internalType": "contract IBCROC",
          "name": "",
          "type": "address"
        }
      ],
      "stateMutability": "view",
      "type": "function"
    },
    {
      "inputs": [],
      "name": "totalPresaleTokensRemaining",
      "outputs": [
        {
          "internalType": "uint256",
          "name": "",
          "type": "uint256"
        }
      ],
      "stateMutability": "view",
      "type": "function"
    },
    {
      "inputs": [],
      "name": "withdraw",
      "outputs": [],
      "stateMutability": "nonpayable",
      "type": "function"
    },
    {
      "stateMutability": "payable",
      "type": "receive"
    }
  ],
  "bytecode": "0x60806040523480156200001157600080fd5b50604051620013fd380380620013fd833981810160405281019062000037919062000160565b336000806101000a81548173ffffffffffffffffffffffffffffffffffffffff021916908373ffffffffffffffffffffffffffffffffffffffff16021790555062124f806001819055506af8277896582678ac0000006002819055506000600360006101000a81548160ff02191690831515021790555080600360016101000a81548173ffffffffffffffffffffffffffffffffffffffff021916908373ffffffffffffffffffffffffffffffffffffffff1602179055505062000192565b600080fd5b600073ffffffffffffffffffffffffffffffffffffffff82169050919050565b60006200012882620000fb565b9050919050565b6200013a816200011b565b81146200014657600080fd5b50565b6000815190506200015a816200012f565b92915050565b600060208284031215620001795762000178620000f6565b5b6000620001898482850162000149565b91505092915050565b61125b80620001a26000396000f3fe6080604052600436106100e05760003560e01c80638da5cb5b1161007f578063f2ac49f211610059578063f2ac49f2146102cd578063f8b2cb4f146102f8578063fc0c546a14610335578063fe9674d41461036057610167565b80638da5cb5b1461024c578063b670a49e14610277578063f27bcf93146102a257610167565b80633610724e116100bb5780633610724e146101eb5780633ccfd60b1461020757806348c54b9d1461021e57806383408d731461023557610167565b80620e7fa81461016c5780631146202b1461019757806327e235e3146101ae57610167565b36610167576000600154346100f59190610af1565b905080600260008282546101099190610b33565b9250508190555080600460003373ffffffffffffffffffffffffffffffffffffffff1673ffffffffffffffffffffffffffffffffffffffff168152602001908152602001600020600082825461015f9190610b67565b925050819055005b600080fd5b34801561017857600080fd5b5061018161038b565b60405161018e9190610baa565b60405180910390f35b3480156101a357600080fd5b506101ac610391565b005b3480156101ba57600080fd5b506101d560048036038101906101d09190610c28565b61044b565b6040516101e29190610baa565b60405180910390f35b61020560048036038101906102009190610c81565b610463565b005b34801561021357600080fd5b5061021c610574565b005b34801561022a57600080fd5b5061023361066b565b005b34801561024157600080fd5b5061024a61082b565b005b34801561025857600080fd5b506102616109eb565b60405161026e9190610ccf565b60405180910390f35b34801561028357600080fd5b5061028c610a0f565b6040516102999190610baa565b60405180910390f35b3480156102ae57600080fd5b506102b7610a19565b6040516102c49190610d05565b60405180910390f35b3480156102d957600080fd5b506102e2610a2c565b6040516102ef9190610baa565b60405180910390f35b34801561030457600080fd5b5061031f600480360381019061031a9190610c28565b610a32565b60405161032c9190610baa565b60405180910390f35b34801561034157600080fd5b5061034a610a7b565b6040516103579190610d7f565b60405180910390f35b34801561036c57600080fd5b50610375610aa1565b6040516103829190610d05565b60405180910390f35b60015481565b60008054906101000a900473ffffffffffffffffffffffffffffffffffffffff1673ffffffffffffffffffffffffffffffffffffffff163373ffffffffffffffffffffffffffffffffffffffff161461041f576040517f08c379a000000000000000000000000000000000000000000000000000000000815260040161041690610e1d565b60405180910390fd5b600360009054906101000a900460ff1615600360006101000a81548160ff021916908315150217905550565b60046020528060005260406000206000915090505481565b80600154346104729190610af1565b146104b2576040517f08c379a00000000000000000000000000000000000000000000000000000000081526004016104a990610ed5565b60405180910390fd5b6000816002546104c29190610b33565b11610502576040517f08c379a00000000000000000000000000000000000000000000000000000000081526004016104f990610f41565b60405180910390fd5b80600260008282546105149190610b33565b9250508190555080600460003373ffffffffffffffffffffffffffffffffffffffff1673ffffffffffffffffffffffffffffffffffffffff168152602001908152602001600020600082825461056a9190610b67565b9250508190555050565b60008054906101000a900473ffffffffffffffffffffffffffffffffffffffff1673ffffffffffffffffffffffffffffffffffffffff163373ffffffffffffffffffffffffffffffffffffffff1614610602576040517f08c379a00000000000000000000000000000000000000000000000000000000081526004016105f990610fd3565b60405180910390fd5b60008054906101000a900473ffffffffffffffffffffffffffffffffffffffff1673ffffffffffffffffffffffffffffffffffffffff166108fc479081150290604051600060405180830381858888f19350505050158015610668573d6000803e3d6000fd5b50565b600360009054906101000a900460ff166106ba576040517f08c379a00000000000000000000000000000000000000000000000000000000081526004016106b19061103f565b60405180910390fd5b6000600460003373ffffffffffffffffffffffffffffffffffffffff1673ffffffffffffffffffffffffffffffffffffffff1681526020019081526020016000205490506000600460003373ffffffffffffffffffffffffffffffffffffffff1673ffffffffffffffffffffffffffffffffffffffff168152602001908152602001600020819055506000600360019054906101000a900473ffffffffffffffffffffffffffffffffffffffff1673ffffffffffffffffffffffffffffffffffffffff1663a9059cbb33846040518363ffffffff1660e01b81526004016107a292919061106e565b6020604051808303816000875af11580156107c1573d6000803e3d6000fd5b505050506040513d601f19601f820116820180604052508101906107e591906110c3565b905080610827576040517f08c379a000000000000000000000000000000000000000000000000000000000815260040161081e9061113c565b60405180910390fd5b5050565b60008054906101000a900473ffffffffffffffffffffffffffffffffffffffff1673ffffffffffffffffffffffffffffffffffffffff163373ffffffffffffffffffffffffffffffffffffffff16146108b9576040517f08c379a00000000000000000000000000000000000000000000000000000000081526004016108b0906111a8565b60405180910390fd5b600360019054906101000a900473ffffffffffffffffffffffffffffffffffffffff1673ffffffffffffffffffffffffffffffffffffffff166342966c68600360019054906101000a900473ffffffffffffffffffffffffffffffffffffffff1673ffffffffffffffffffffffffffffffffffffffff166370a08231306040518263ffffffff1660e01b815260040161095291906111c8565b602060405180830381865afa15801561096f573d6000803e3d6000fd5b505050506040513d601f19601f8201168201806040525081019061099391906111f8565b6040518263ffffffff1660e01b81526004016109af9190610baa565b600060405180830381600087803b1580156109c957600080fd5b505af11580156109dd573d6000803e3d6000fd5b505050506000600281905550565b60008054906101000a900473ffffffffffffffffffffffffffffffffffffffff1681565b6000600254905090565b600360009054906101000a900460ff1681565b60025481565b6000600460008373ffffffffffffffffffffffffffffffffffffffff1673ffffffffffffffffffffffffffffffffffffffff168152602001908152602001600020549050919050565b600360019054906101000a900473ffffffffffffffffffffffffffffffffffffffff1681565b6000600360009054906101000a900460ff16905090565b6000819050919050565b7f4e487b7100000000000000000000000000000000000000000000000000000000600052601160045260246000fd5b6000610afc82610ab8565b9150610b0783610ab8565b9250828202610b1581610ab8565b91508282048414831517610b2c57610b2b610ac2565b5b5092915050565b6000610b3e82610ab8565b9150610b4983610ab8565b9250828203905081811115610b6157610b60610ac2565b5b92915050565b6000610b7282610ab8565b9150610b7d83610ab8565b9250828201905080821115610b9557610b94610ac2565b5b92915050565b610ba481610ab8565b82525050565b6000602082019050610bbf6000830184610b9b565b92915050565b600080fd5b600073ffffffffffffffffffffffffffffffffffffffff82169050919050565b6000610bf582610bca565b9050919050565b610c0581610bea565b8114610c1057600080fd5b50565b600081359050610c2281610bfc565b92915050565b600060208284031215610c3e57610c3d610bc5565b5b6000610c4c84828501610c13565b91505092915050565b610c5e81610ab8565b8114610c6957600080fd5b50565b600081359050610c7b81610c55565b92915050565b600060208284031215610c9757610c96610bc5565b5b6000610ca584828501610c6c565b91505092915050565b6000610cb982610bca565b9050919050565b610cc981610cae565b82525050565b6000602082019050610ce46000830184610cc0565b92915050565b60008115159050919050565b610cff81610cea565b82525050565b6000602082019050610d1a6000830184610cf6565b92915050565b6000819050919050565b6000610d45610d40610d3b84610bca565b610d20565b610bca565b9050919050565b6000610d5782610d2a565b9050919050565b6000610d6982610d4c565b9050919050565b610d7981610d5e565b82525050565b6000602082019050610d946000830184610d70565b92915050565b600082825260208201905092915050565b7f4f6e6c7920746865206f776e65722063616e20746f67676c6520746f6b656e7360008201527f20636c61696d6162696c69747900000000000000000000000000000000000000602082015250565b6000610e07602d83610d9a565b9150610e1282610dab565b604082019050919050565b60006020820190508181036000830152610e3681610dfa565b9050919050565b7f416d6f756e74206d75737420626520657175616c20746f207468652070726f6460008201527f756374206f662074686520616d6f756e74206f6620746f6b656e7320616e642060208201527f7468652070726573616c65207072696365000000000000000000000000000000604082015250565b6000610ebf605183610d9a565b9150610eca82610e3d565b606082019050919050565b60006020820190508181036000830152610eee81610eb2565b9050919050565b7f4e6f7420656e6f75676820746f6b656e732072656d61696e696e670000000000600082015250565b6000610f2b601b83610d9a565b9150610f3682610ef5565b602082019050919050565b60006020820190508181036000830152610f5a81610f1e565b9050919050565b7f4f6e6c7920746865206f776e65722063616e2077697468647261772066756e6460008201527f7300000000000000000000000000000000000000000000000000000000000000602082015250565b6000610fbd602183610d9a565b9150610fc882610f61565b604082019050919050565b60006020820190508181036000830152610fec81610fb0565b9050919050565b7f546f6b656e7320617265206e6f7420636c61696d61626c657320796574000000600082015250565b6000611029601d83610d9a565b915061103482610ff3565b602082019050919050565b600060208201905081810360008301526110588161101c565b9050919050565b61106881610bea565b82525050565b6000604082019050611083600083018561105f565b6110906020830184610b9b565b9392505050565b6110a081610cea565b81146110ab57600080fd5b50565b6000815190506110bd81611097565b92915050565b6000602082840312156110d9576110d8610bc5565b5b60006110e7848285016110ae565b91505092915050565b7f546f6b656e73207472616e73666572206661696c656400000000000000000000600082015250565b6000611126601683610d9a565b9150611131826110f0565b602082019050919050565b6000602082019050818103600083015261115581611119565b9050919050565b7f4f6e6c7920746865206f776e65722063616e206275726e20746f6b656e730000600082015250565b6000611192601e83610d9a565b915061119d8261115c565b602082019050919050565b600060208201905081810360008301526111c181611185565b9050919050565b60006020820190506111dd600083018461105f565b92915050565b6000815190506111f281610c55565b92915050565b60006020828403121561120e5761120d610bc5565b5b600061121c848285016111e3565b9150509291505056fea2646970667358221220211453d30800e7a8de1bb5621d562689adfde7ccece3b8cc7359c4eab765486c64736f6c63430008180033",
  "linkReferences": {},
  "deployedLinkReferences": {}
}