{
  "_format": "hh-sol-artifact-1",
  "contractName": "BettingCrocPresale",
  "sourceName": "contracts/Presale.sol",
  "abi": [
    {
      "inputs": [
        {
          "internalType": "address",
          "name": "_tokenAddress",
          "type": "address"
        }
      ],
      "stateMutability": "nonpayable",
      "type": "constructor"
    },
    {
      "inputs": [],
      "name": "areTokensClaimable",
      "outputs": [
        {
          "internalType": "bool",
          "name": "",
          "type": "bool"
        }
      ],
      "stateMutability": "view",
      "type": "function"
    },
    {
      "inputs": [
        {
          "internalType": "address",
          "name": "",
          "type": "address"
        }
      ],
      "name": "balances",
      "outputs": [
        {
          "internalType": "uint256",
          "name": "",
          "type": "uint256"
        }
      ],
      "stateMutability": "view",
      "type": "function"
    },
    {
      "inputs": [],
      "name": "burnRemainingTokens",
      "outputs": [],
      "stateMutability": "nonpayable",
      "type": "function"
    },
    {
      "inputs": [
        {
          "internalType": "uint256",
          "name": "_amount",
          "type": "uint256"
        }
      ],
      "name": "buyTokens",
      "outputs": [],
      "stateMutability": "payable",
      "type": "function"
    },
    {
      "inputs": [],
      "name": "claimTokens",
      "outputs": [],
      "stateMutability": "nonpayable",
      "type": "function"
    },
    {
      "inputs": [],
      "name": "getAreTokensClaimable",
      "outputs": [
        {
          "internalType": "bool",
          "name": "",
          "type": "bool"
        }
      ],
      "stateMutability": "view",
      "type": "function"
    },
    {
      "inputs": [
        {
          "internalType": "address",
          "name": "_address",
          "type": "address"
        }
      ],
      "name": "getBalance",
      "outputs": [
        {
          "internalType": "uint256",
          "name": "",
          "type": "uint256"
        }
      ],
      "stateMutability": "view",
      "type": "function"
    },
    {
      "inputs": [],
      "name": "getIsPreSaleLive",
      "outputs": [
        {
          "internalType": "bool",
          "name": "",
          "type": "bool"
        }
      ],
      "stateMutability": "view",
      "type": "function"
    },
    {
      "inputs": [],
      "name": "getTotalPresaleTokensRemaining",
      "outputs": [
        {
          "internalType": "uint256",
          "name": "",
          "type": "uint256"
        }
      ],
      "stateMutability": "view",
      "type": "function"
    },
    {
      "inputs": [],
      "name": "isPreSaleLive",
      "outputs": [
        {
          "internalType": "bool",
          "name": "",
          "type": "bool"
        }
      ],
      "stateMutability": "view",
      "type": "function"
    },
    {
      "inputs": [],
      "name": "owner",
      "outputs": [
        {
          "internalType": "address payable",
          "name": "",
          "type": "address"
        }
      ],
      "stateMutability": "view",
      "type": "function"
    },
    {
      "inputs": [],
      "name": "presalePrice",
      "outputs": [
        {
          "internalType": "uint256",
          "name": "",
          "type": "uint256"
        }
      ],
      "stateMutability": "view",
      "type": "function"
    },
    {
      "inputs": [],
      "name": "toggleAreTokensClaimable",
      "outputs": [],
      "stateMutability": "nonpayable",
      "type": "function"
    },
    {
      "inputs": [],
      "name": "togglePreSaleStatus",
      "outputs": [],
      "stateMutability": "nonpayable",
      "type": "function"
    },
    {
      "inputs": [],
      "name": "token",
      "outputs": [
        {
          "internalType": "contract IBCROC",
          "name": "",
          "type": "address"
        }
      ],
      "stateMutability": "view",
      "type": "function"
    },
    {
      "inputs": [],
      "name": "totalPresaleTokensRemaining",
      "outputs": [
        {
          "internalType": "uint256",
          "name": "",
          "type": "uint256"
        }
      ],
      "stateMutability": "view",
      "type": "function"
    },
    {
      "inputs": [],
      "name": "withdraw",
      "outputs": [],
      "stateMutability": "nonpayable",
      "type": "function"
    }
  ],
  "bytecode": "0x60806040523480156200001157600080fd5b50604051620017083803806200170883398181016040528101906200003791906200017b565b336000806101000a81548173ffffffffffffffffffffffffffffffffffffffff021916908373ffffffffffffffffffffffffffffffffffffffff16021790555062124f806001819055506af8277896582678ac0000006002819055506000600360006101000a81548160ff0219169083151502179055506000600360016101000a81548160ff02191690831515021790555080600360026101000a81548173ffffffffffffffffffffffffffffffffffffffff021916908373ffffffffffffffffffffffffffffffffffffffff16021790555050620001ad565b600080fd5b600073ffffffffffffffffffffffffffffffffffffffff82169050919050565b6000620001438262000116565b9050919050565b620001558162000136565b81146200016157600080fd5b50565b60008151905062000175816200014a565b92915050565b60006020828403121562000194576200019362000111565b5b6000620001a48482850162000164565b91505092915050565b61154b80620001bd6000396000f3fe6080604052600436106100fd5760003560e01c80638da5cb5b11610095578063f27bcf9311610064578063f27bcf93146102a5578063f2ac49f2146102d0578063f8b2cb4f146102fb578063fc0c546a14610338578063fe9674d414610363576100fd565b80638da5cb5b146101f95780639cc6956614610224578063b670a49e1461024f578063f21852d01461027a576100fd565b80633c33eec4116100d15780633c33eec41461019d5780633ccfd60b146101b457806348c54b9d146101cb57806383408d73146101e2576100fd565b80620e7fa8146101025780631146202b1461012d57806327e235e3146101445780633610724e14610181575b600080fd5b34801561010e57600080fd5b5061011761038e565b6040516101249190610c57565b60405180910390f35b34801561013957600080fd5b50610142610394565b005b34801561015057600080fd5b5061016b60048036038101906101669190610cd5565b61044e565b6040516101789190610c57565b60405180910390f35b61019b60048036038101906101969190610d2e565b610466565b005b3480156101a957600080fd5b506101b26105c6565b005b3480156101c057600080fd5b506101c9610680565b005b3480156101d757600080fd5b506101e0610777565b005b3480156101ee57600080fd5b506101f7610937565b005b34801561020557600080fd5b5061020e610b47565b60405161021b9190610d7c565b60405180910390f35b34801561023057600080fd5b50610239610b6b565b6040516102469190610db2565b60405180910390f35b34801561025b57600080fd5b50610264610b82565b6040516102719190610c57565b60405180910390f35b34801561028657600080fd5b5061028f610b8c565b60405161029c9190610db2565b60405180910390f35b3480156102b157600080fd5b506102ba610b9f565b6040516102c79190610db2565b60405180910390f35b3480156102dc57600080fd5b506102e5610bb2565b6040516102f29190610c57565b60405180910390f35b34801561030757600080fd5b50610322600480360381019061031d9190610cd5565b610bb8565b60405161032f9190610c57565b60405180910390f35b34801561034457600080fd5b5061034d610c01565b60405161035a9190610e2c565b60405180910390f35b34801561036f57600080fd5b50610378610c27565b6040516103859190610db2565b60405180910390f35b60015481565b60008054906101000a900473ffffffffffffffffffffffffffffffffffffffff1673ffffffffffffffffffffffffffffffffffffffff163373ffffffffffffffffffffffffffffffffffffffff1614610422576040517f08c379a000000000000000000000000000000000000000000000000000000000815260040161041990610eca565b60405180910390fd5b600360019054906101000a900460ff1615600360016101000a81548160ff021916908315150217905550565b60046020528060005260406000206000915090505481565b600360009054906101000a900460ff166104b5576040517f08c379a00000000000000000000000000000000000000000000000000000000081526004016104ac90610f36565b60405180910390fd5b80600154346104c49190610f85565b14610504576040517f08c379a00000000000000000000000000000000000000000000000000000000081526004016104fb9061105f565b60405180910390fd5b600081600254610514919061107f565b11610554576040517f08c379a000000000000000000000000000000000000000000000000000000000815260040161054b906110ff565b60405180910390fd5b8060026000828254610566919061107f565b9250508190555080600460003373ffffffffffffffffffffffffffffffffffffffff1673ffffffffffffffffffffffffffffffffffffffff16815260200190815260200160002060008282546105bc919061111f565b9250508190555050565b60008054906101000a900473ffffffffffffffffffffffffffffffffffffffff1673ffffffffffffffffffffffffffffffffffffffff163373ffffffffffffffffffffffffffffffffffffffff1614610654576040517f08c379a000000000000000000000000000000000000000000000000000000000815260040161064b906111c5565b60405180910390fd5b600360009054906101000a900460ff1615600360006101000a81548160ff021916908315150217905550565b60008054906101000a900473ffffffffffffffffffffffffffffffffffffffff1673ffffffffffffffffffffffffffffffffffffffff163373ffffffffffffffffffffffffffffffffffffffff161461070e576040517f08c379a000000000000000000000000000000000000000000000000000000000815260040161070590611257565b60405180910390fd5b60008054906101000a900473ffffffffffffffffffffffffffffffffffffffff1673ffffffffffffffffffffffffffffffffffffffff166108fc479081150290604051600060405180830381858888f19350505050158015610774573d6000803e3d6000fd5b50565b600360019054906101000a900460ff166107c6576040517f08c379a00000000000000000000000000000000000000000000000000000000081526004016107bd906112c3565b60405180910390fd5b6000600460003373ffffffffffffffffffffffffffffffffffffffff1673ffffffffffffffffffffffffffffffffffffffff1681526020019081526020016000205490506000600460003373ffffffffffffffffffffffffffffffffffffffff1673ffffffffffffffffffffffffffffffffffffffff168152602001908152602001600020819055506000600360029054906101000a900473ffffffffffffffffffffffffffffffffffffffff1673ffffffffffffffffffffffffffffffffffffffff1663a9059cbb33846040518363ffffffff1660e01b81526004016108ae9291906112f2565b6020604051808303816000875af11580156108cd573d6000803e3d6000fd5b505050506040513d601f19601f820116820180604052508101906108f19190611347565b905080610933576040517f08c379a000000000000000000000000000000000000000000000000000000000815260040161092a906113c0565b60405180910390fd5b5050565b60008054906101000a900473ffffffffffffffffffffffffffffffffffffffff1673ffffffffffffffffffffffffffffffffffffffff163373ffffffffffffffffffffffffffffffffffffffff16146109c5576040517f08c379a00000000000000000000000000000000000000000000000000000000081526004016109bc9061142c565b60405180910390fd5b600360009054906101000a900460ff1615610a15576040517f08c379a0000000000000000000000000000000000000000000000000000000008152600401610a0c90611498565b60405180910390fd5b600360029054906101000a900473ffffffffffffffffffffffffffffffffffffffff1673ffffffffffffffffffffffffffffffffffffffff166342966c68600360029054906101000a900473ffffffffffffffffffffffffffffffffffffffff1673ffffffffffffffffffffffffffffffffffffffff166370a08231306040518263ffffffff1660e01b8152600401610aae91906114b8565b602060405180830381865afa158015610acb573d6000803e3d6000fd5b505050506040513d601f19601f82011682018060405250810190610aef91906114e8565b6040518263ffffffff1660e01b8152600401610b0b9190610c57565b600060405180830381600087803b158015610b2557600080fd5b505af1158015610b39573d6000803e3d6000fd5b505050506000600281905550565b60008054906101000a900473ffffffffffffffffffffffffffffffffffffffff1681565b6000600360009054906101000a900460ff16905090565b6000600254905090565b600360009054906101000a900460ff1681565b600360019054906101000a900460ff1681565b60025481565b6000600460008373ffffffffffffffffffffffffffffffffffffffff1673ffffffffffffffffffffffffffffffffffffffff168152602001908152602001600020549050919050565b600360029054906101000a900473ffffffffffffffffffffffffffffffffffffffff1681565b6000600360019054906101000a900460ff16905090565b6000819050919050565b610c5181610c3e565b82525050565b6000602082019050610c6c6000830184610c48565b92915050565b600080fd5b600073ffffffffffffffffffffffffffffffffffffffff82169050919050565b6000610ca282610c77565b9050919050565b610cb281610c97565b8114610cbd57600080fd5b50565b600081359050610ccf81610ca9565b92915050565b600060208284031215610ceb57610cea610c72565b5b6000610cf984828501610cc0565b91505092915050565b610d0b81610c3e565b8114610d1657600080fd5b50565b600081359050610d2881610d02565b92915050565b600060208284031215610d4457610d43610c72565b5b6000610d5284828501610d19565b91505092915050565b6000610d6682610c77565b9050919050565b610d7681610d5b565b82525050565b6000602082019050610d916000830184610d6d565b92915050565b60008115159050919050565b610dac81610d97565b82525050565b6000602082019050610dc76000830184610da3565b92915050565b6000819050919050565b6000610df2610ded610de884610c77565b610dcd565b610c77565b9050919050565b6000610e0482610dd7565b9050919050565b6000610e1682610df9565b9050919050565b610e2681610e0b565b82525050565b6000602082019050610e416000830184610e1d565b92915050565b600082825260208201905092915050565b7f4f6e6c7920746865206f776e65722063616e20746f67676c6520746f6b656e7360008201527f20636c61696d6162696c69747900000000000000000000000000000000000000602082015250565b6000610eb4602d83610e47565b9150610ebf82610e58565b604082019050919050565b60006020820190508181036000830152610ee381610ea7565b9050919050565b7f70726573616c65206973206e6f74206c69766500000000000000000000000000600082015250565b6000610f20601383610e47565b9150610f2b82610eea565b602082019050919050565b60006020820190508181036000830152610f4f81610f13565b9050919050565b7f4e487b7100000000000000000000000000000000000000000000000000000000600052601160045260246000fd5b6000610f9082610c3e565b9150610f9b83610c3e565b9250828202610fa981610c3e565b91508282048414831517610fc057610fbf610f56565b5b5092915050565b7f416d6f756e74206d75737420626520657175616c20746f207468652070726f6460008201527f756374206f662074686520616d6f756e74206f6620746f6b656e7320616e642060208201527f7468652070726573616c65207072696365000000000000000000000000000000604082015250565b6000611049605183610e47565b915061105482610fc7565b606082019050919050565b600060208201905081810360008301526110788161103c565b9050919050565b600061108a82610c3e565b915061109583610c3e565b92508282039050818111156110ad576110ac610f56565b5b92915050565b7f4e6f7420656e6f75676820746f6b656e732072656d61696e696e670000000000600082015250565b60006110e9601b83610e47565b91506110f4826110b3565b602082019050919050565b60006020820190508181036000830152611118816110dc565b9050919050565b600061112a82610c3e565b915061113583610c3e565b925082820190508082111561114d5761114c610f56565b5b92915050565b7f4f6e6c7920746865206f776e65722063616e20746f67676c652070726573616c60008201527f6520737461747573000000000000000000000000000000000000000000000000602082015250565b60006111af602883610e47565b91506111ba82611153565b604082019050919050565b600060208201905081810360008301526111de816111a2565b9050919050565b7f4f6e6c7920746865206f776e65722063616e2077697468647261772066756e6460008201527f7300000000000000000000000000000000000000000000000000000000000000602082015250565b6000611241602183610e47565b915061124c826111e5565b604082019050919050565b6000602082019050818103600083015261127081611234565b9050919050565b7f546f6b656e7320617265206e6f7420636c61696d61626c657320796574000000600082015250565b60006112ad601d83610e47565b91506112b882611277565b602082019050919050565b600060208201905081810360008301526112dc816112a0565b9050919050565b6112ec81610c97565b82525050565b600060408201905061130760008301856112e3565b6113146020830184610c48565b9392505050565b61132481610d97565b811461132f57600080fd5b50565b6000815190506113418161131b565b92915050565b60006020828403121561135d5761135c610c72565b5b600061136b84828501611332565b91505092915050565b7f546f6b656e73207472616e73666572206661696c656400000000000000000000600082015250565b60006113aa601683610e47565b91506113b582611374565b602082019050919050565b600060208201905081810360008301526113d98161139d565b9050919050565b7f4f6e6c7920746865206f776e65722063616e206275726e20746f6b656e730000600082015250565b6000611416601e83610e47565b9150611421826113e0565b602082019050919050565b6000602082019050818103600083015261144581611409565b9050919050565b7f50726553616c65206973206c6976650000000000000000000000000000000000600082015250565b6000611482600f83610e47565b915061148d8261144c565b602082019050919050565b600060208201905081810360008301526114b181611475565b9050919050565b60006020820190506114cd60008301846112e3565b92915050565b6000815190506114e281610d02565b92915050565b6000602082840312156114fe576114fd610c72565b5b600061150c848285016114d3565b9150509291505056fea26469706673582212202b0e41a1cf250156558570eec22374c121b703db297050c169a4a698a87be03564736f6c63430008180033",
  "linkReferences": {},
  "deployedLinkReferences": {}
}