{
  "_format": "hh-sol-artifact-1",
  "contractName": "Presale",
  "sourceName": "contracts/Presale.sol",
  "abi": [
    {
      "inputs": [
        {
          "internalType": "address",
          "name": "_tokenAddress",
          "type": "address"
        }
      ],
      "stateMutability": "nonpayable",
      "type": "constructor"
    },
    {
      "inputs": [
        {
          "internalType": "address",
          "name": "",
          "type": "address"
        }
      ],
      "name": "balances",
      "outputs": [
        {
          "internalType": "uint256",
          "name": "",
          "type": "uint256"
        }
      ],
      "stateMutability": "view",
      "type": "function"
    },
    {
      "inputs": [],
      "name": "burnRemainingTokens",
      "outputs": [],
      "stateMutability": "nonpayable",
      "type": "function"
    },
    {
      "inputs": [
        {
          "internalType": "uint256",
          "name": "_amount",
          "type": "uint256"
        }
      ],
      "name": "buyTokens",
      "outputs": [],
      "stateMutability": "payable",
      "type": "function"
    },
    {
      "inputs": [
        {
          "internalType": "address",
          "name": "_address",
          "type": "address"
        }
      ],
      "name": "getBalance",
      "outputs": [
        {
          "internalType": "uint256",
          "name": "",
          "type": "uint256"
        }
      ],
      "stateMutability": "view",
      "type": "function"
    },
    {
      "inputs": [],
      "name": "getIsPreSaleLive",
      "outputs": [
        {
          "internalType": "bool",
          "name": "",
          "type": "bool"
        }
      ],
      "stateMutability": "view",
      "type": "function"
    },
    {
      "inputs": [],
      "name": "getTotalPresaleTokensRemaining",
      "outputs": [
        {
          "internalType": "uint256",
          "name": "",
          "type": "uint256"
        }
      ],
      "stateMutability": "view",
      "type": "function"
    },
    {
      "inputs": [],
      "name": "isPreSaleLive",
      "outputs": [
        {
          "internalType": "bool",
          "name": "",
          "type": "bool"
        }
      ],
      "stateMutability": "view",
      "type": "function"
    },
    {
      "inputs": [],
      "name": "maxTokenPerUser",
      "outputs": [
        {
          "internalType": "uint256",
          "name": "",
          "type": "uint256"
        }
      ],
      "stateMutability": "view",
      "type": "function"
    },
    {
      "inputs": [],
      "name": "owner",
      "outputs": [
        {
          "internalType": "address payable",
          "name": "",
          "type": "address"
        }
      ],
      "stateMutability": "view",
      "type": "function"
    },
    {
      "inputs": [],
      "name": "presalePrice",
      "outputs": [
        {
          "internalType": "uint256",
          "name": "",
          "type": "uint256"
        }
      ],
      "stateMutability": "view",
      "type": "function"
    },
    {
      "inputs": [],
      "name": "togglePreSaleStatus",
      "outputs": [],
      "stateMutability": "nonpayable",
      "type": "function"
    },
    {
      "inputs": [],
      "name": "token",
      "outputs": [
        {
          "internalType": "contract ISTINKAT",
          "name": "",
          "type": "address"
        }
      ],
      "stateMutability": "view",
      "type": "function"
    },
    {
      "inputs": [],
      "name": "totalPresaleTokensRemaining",
      "outputs": [
        {
          "internalType": "uint256",
          "name": "",
          "type": "uint256"
        }
      ],
      "stateMutability": "view",
      "type": "function"
    },
    {
      "inputs": [],
      "name": "withdraw",
      "outputs": [],
      "stateMutability": "nonpayable",
      "type": "function"
    }
  ],
  "bytecode": "0x60806040523480156200001157600080fd5b506040516200143638038062001436833981810160405281019062000037919062000171565b336000806101000a81548173ffffffffffffffffffffffffffffffffffffffff021916908373ffffffffffffffffffffffffffffffffffffffff16021790555080600460016101000a81548173ffffffffffffffffffffffffffffffffffffffff021916908373ffffffffffffffffffffffffffffffffffffffff160217905550622191c06001819055506a03a3bc7a5ab8e25e0000006002819055506929ed99fc670a2fc000006003819055506000600460006101000a81548160ff02191690831515021790555050620001a3565b600080fd5b600073ffffffffffffffffffffffffffffffffffffffff82169050919050565b600062000139826200010c565b9050919050565b6200014b816200012c565b81146200015757600080fd5b50565b6000815190506200016b8162000140565b92915050565b6000602082840312156200018a576200018962000107565b5b60006200019a848285016200015a565b91505092915050565b61128380620001b36000396000f3fe6080604052600436106100dc5760003560e01c80638da5cb5b1161007f578063f21852d011610059578063f21852d014610256578063f2ac49f214610281578063f8b2cb4f146102ac578063fc0c546a146102e9576100dc565b80638da5cb5b146101d55780639cc6956614610200578063b670a49e1461022b576100dc565b80633c33eec4116100bb5780633c33eec4146101655780633ccfd60b1461017c57806350c507101461019357806383408d73146101be576100dc565b80620e7fa8146100e157806327e235e31461010c5780633610724e14610149575b600080fd5b3480156100ed57600080fd5b506100f6610314565b6040516101039190610a67565b60405180910390f35b34801561011857600080fd5b50610133600480360381019061012e9190610ae5565b61031a565b6040516101409190610a67565b60405180910390f35b610163600480360381019061015e9190610b3e565b610332565b005b34801561017157600080fd5b5061017a6105c2565b005b34801561018857600080fd5b5061019161067c565b005b34801561019f57600080fd5b506101a8610773565b6040516101b59190610a67565b60405180910390f35b3480156101ca57600080fd5b506101d3610779565b005b3480156101e157600080fd5b506101ea610981565b6040516101f79190610b8c565b60405180910390f35b34801561020c57600080fd5b506102156109a5565b6040516102229190610bc2565b60405180910390f35b34801561023757600080fd5b506102406109bc565b60405161024d9190610a67565b60405180910390f35b34801561026257600080fd5b5061026b6109c6565b6040516102789190610bc2565b60405180910390f35b34801561028d57600080fd5b506102966109d9565b6040516102a39190610a67565b60405180910390f35b3480156102b857600080fd5b506102d360048036038101906102ce9190610ae5565b6109df565b6040516102e09190610a67565b60405180910390f35b3480156102f557600080fd5b506102fe610a28565b60405161030b9190610c3c565b60405180910390f35b60015481565b60056020528060005260406000206000915090505481565b600460009054906101000a900460ff16610381576040517f08c379a000000000000000000000000000000000000000000000000000000000815260040161037890610cb4565b60405180910390fd5b80600154346103909190610d03565b146103d0576040517f08c379a00000000000000000000000000000000000000000000000000000000081526004016103c790610ddd565b60405180910390fd5b60035481600560003373ffffffffffffffffffffffffffffffffffffffff1673ffffffffffffffffffffffffffffffffffffffff1681526020019081526020016000205461041e9190610dfd565b111561045f576040517f08c379a000000000000000000000000000000000000000000000000000000000815260040161045690610ea3565b60405180910390fd5b60008160025461046f9190610ec3565b116104af576040517f08c379a00000000000000000000000000000000000000000000000000000000081526004016104a690610f43565b60405180910390fd5b80600260008282546104c19190610ec3565b9250508190555080600560003373ffffffffffffffffffffffffffffffffffffffff1673ffffffffffffffffffffffffffffffffffffffff16815260200190815260200160002060008282546105179190610dfd565b92505081905550600460019054906101000a900473ffffffffffffffffffffffffffffffffffffffff1673ffffffffffffffffffffffffffffffffffffffff1663a9059cbb33836040518363ffffffff1660e01b815260040161057b929190610f72565b6020604051808303816000875af115801561059a573d6000803e3d6000fd5b505050506040513d601f19601f820116820180604052508101906105be9190610fc7565b5050565b60008054906101000a900473ffffffffffffffffffffffffffffffffffffffff1673ffffffffffffffffffffffffffffffffffffffff163373ffffffffffffffffffffffffffffffffffffffff1614610650576040517f08c379a000000000000000000000000000000000000000000000000000000000815260040161064790611066565b60405180910390fd5b600460009054906101000a900460ff1615600460006101000a81548160ff021916908315150217905550565b60008054906101000a900473ffffffffffffffffffffffffffffffffffffffff1673ffffffffffffffffffffffffffffffffffffffff163373ffffffffffffffffffffffffffffffffffffffff161461070a576040517f08c379a0000000000000000000000000000000000000000000000000000000008152600401610701906110f8565b60405180910390fd5b60008054906101000a900473ffffffffffffffffffffffffffffffffffffffff1673ffffffffffffffffffffffffffffffffffffffff166108fc479081150290604051600060405180830381858888f19350505050158015610770573d6000803e3d6000fd5b50565b60035481565b60008054906101000a900473ffffffffffffffffffffffffffffffffffffffff1673ffffffffffffffffffffffffffffffffffffffff163373ffffffffffffffffffffffffffffffffffffffff1614610807576040517f08c379a00000000000000000000000000000000000000000000000000000000081526004016107fe90611164565b60405180910390fd5b600460009054906101000a900460ff1615610857576040517f08c379a000000000000000000000000000000000000000000000000000000000815260040161084e906111d0565b60405180910390fd5b600460019054906101000a900473ffffffffffffffffffffffffffffffffffffffff1673ffffffffffffffffffffffffffffffffffffffff166342966c68600460019054906101000a900473ffffffffffffffffffffffffffffffffffffffff1673ffffffffffffffffffffffffffffffffffffffff166370a08231306040518263ffffffff1660e01b81526004016108f091906111f0565b602060405180830381865afa15801561090d573d6000803e3d6000fd5b505050506040513d601f19601f820116820180604052508101906109319190611220565b6040518263ffffffff1660e01b815260040161094d9190610a67565b600060405180830381600087803b15801561096757600080fd5b505af115801561097b573d6000803e3d6000fd5b50505050565b60008054906101000a900473ffffffffffffffffffffffffffffffffffffffff1681565b6000600460009054906101000a900460ff16905090565b6000600254905090565b600460009054906101000a900460ff1681565b60025481565b6000600560008373ffffffffffffffffffffffffffffffffffffffff1673ffffffffffffffffffffffffffffffffffffffff168152602001908152602001600020549050919050565b600460019054906101000a900473ffffffffffffffffffffffffffffffffffffffff1681565b6000819050919050565b610a6181610a4e565b82525050565b6000602082019050610a7c6000830184610a58565b92915050565b600080fd5b600073ffffffffffffffffffffffffffffffffffffffff82169050919050565b6000610ab282610a87565b9050919050565b610ac281610aa7565b8114610acd57600080fd5b50565b600081359050610adf81610ab9565b92915050565b600060208284031215610afb57610afa610a82565b5b6000610b0984828501610ad0565b91505092915050565b610b1b81610a4e565b8114610b2657600080fd5b50565b600081359050610b3881610b12565b92915050565b600060208284031215610b5457610b53610a82565b5b6000610b6284828501610b29565b91505092915050565b6000610b7682610a87565b9050919050565b610b8681610b6b565b82525050565b6000602082019050610ba16000830184610b7d565b92915050565b60008115159050919050565b610bbc81610ba7565b82525050565b6000602082019050610bd76000830184610bb3565b92915050565b6000819050919050565b6000610c02610bfd610bf884610a87565b610bdd565b610a87565b9050919050565b6000610c1482610be7565b9050919050565b6000610c2682610c09565b9050919050565b610c3681610c1b565b82525050565b6000602082019050610c516000830184610c2d565b92915050565b600082825260208201905092915050565b7f70726573616c65206973206e6f74206c69766500000000000000000000000000600082015250565b6000610c9e601383610c57565b9150610ca982610c68565b602082019050919050565b60006020820190508181036000830152610ccd81610c91565b9050919050565b7f4e487b7100000000000000000000000000000000000000000000000000000000600052601160045260246000fd5b6000610d0e82610a4e565b9150610d1983610a4e565b9250828202610d2781610a4e565b91508282048414831517610d3e57610d3d610cd4565b5b5092915050565b7f416d6f756e74206d75737420626520657175616c20746f207468652070726f6460008201527f756374206f662074686520616d6f756e74206f6620746f6b656e7320616e642060208201527f7468652070726573616c65207072696365000000000000000000000000000000604082015250565b6000610dc7605183610c57565b9150610dd282610d45565b606082019050919050565b60006020820190508181036000830152610df681610dba565b9050919050565b6000610e0882610a4e565b9150610e1383610a4e565b9250828201905080821115610e2b57610e2a610cd4565b5b92915050565b7f45786365656465642074686520746f74616c20616d6f756e74206f6620746f6b60008201527f656e7320666f722073616c650000000000000000000000000000000000000000602082015250565b6000610e8d602c83610c57565b9150610e9882610e31565b604082019050919050565b60006020820190508181036000830152610ebc81610e80565b9050919050565b6000610ece82610a4e565b9150610ed983610a4e565b9250828203905081811115610ef157610ef0610cd4565b5b92915050565b7f4e6f7420656e6f75676820746f6b656e732072656d61696e696e670000000000600082015250565b6000610f2d601b83610c57565b9150610f3882610ef7565b602082019050919050565b60006020820190508181036000830152610f5c81610f20565b9050919050565b610f6c81610aa7565b82525050565b6000604082019050610f876000830185610f63565b610f946020830184610a58565b9392505050565b610fa481610ba7565b8114610faf57600080fd5b50565b600081519050610fc181610f9b565b92915050565b600060208284031215610fdd57610fdc610a82565b5b6000610feb84828501610fb2565b91505092915050565b7f4f6e6c7920746865206f776e65722063616e20746f67676c652070726573616c60008201527f6500000000000000000000000000000000000000000000000000000000000000602082015250565b6000611050602183610c57565b915061105b82610ff4565b604082019050919050565b6000602082019050818103600083015261107f81611043565b9050919050565b7f4f6e6c7920746865206f776e65722063616e2077697468647261772066756e6460008201527f7300000000000000000000000000000000000000000000000000000000000000602082015250565b60006110e2602183610c57565b91506110ed82611086565b604082019050919050565b60006020820190508181036000830152611111816110d5565b9050919050565b7f4f6e6c7920746865206f776e65722063616e206275726e20746f6b656e730000600082015250565b600061114e601e83610c57565b915061115982611118565b602082019050919050565b6000602082019050818103600083015261117d81611141565b9050919050565b7f50726553616c65206973206c6976650000000000000000000000000000000000600082015250565b60006111ba600f83610c57565b91506111c582611184565b602082019050919050565b600060208201905081810360008301526111e9816111ad565b9050919050565b60006020820190506112056000830184610f63565b92915050565b60008151905061121a81610b12565b92915050565b60006020828403121561123657611235610a82565b5b60006112448482850161120b565b9150509291505056fea26469706673582212209d38bcbba1a6d6686a60f62cc7f464978ae4e0be9a2e94a1d5c37e50275c79fe64736f6c63430008180033",
  "linkReferences": {},
  "deployedLinkReferences": {}
}