{
  "_format": "hh-sol-artifact-1",
  "contractName": "Presale",
  "sourceName": "contracts/Presale.sol",
  "abi": [
    {
      "inputs": [
        {
          "internalType": "address",
          "name": "_tokenAddress",
          "type": "address"
        }
      ],
      "stateMutability": "nonpayable",
      "type": "constructor"
    },
    {
      "inputs": [],
      "name": "areTokensClaimable",
      "outputs": [
        {
          "internalType": "bool",
          "name": "",
          "type": "bool"
        }
      ],
      "stateMutability": "view",
      "type": "function"
    },
    {
      "inputs": [
        {
          "internalType": "address",
          "name": "",
          "type": "address"
        }
      ],
      "name": "balances",
      "outputs": [
        {
          "internalType": "uint256",
          "name": "",
          "type": "uint256"
        }
      ],
      "stateMutability": "view",
      "type": "function"
    },
    {
      "inputs": [
        {
          "internalType": "uint256",
          "name": "_amount",
          "type": "uint256"
        }
      ],
      "name": "buyTokens",
      "outputs": [],
      "stateMutability": "payable",
      "type": "function"
    },
    {
      "inputs": [],
      "name": "claimTokens",
      "outputs": [],
      "stateMutability": "nonpayable",
      "type": "function"
    },
    {
      "inputs": [],
      "name": "getAreTokensClaimable",
      "outputs": [
        {
          "internalType": "bool",
          "name": "",
          "type": "bool"
        }
      ],
      "stateMutability": "view",
      "type": "function"
    },
    {
      "inputs": [
        {
          "internalType": "address",
          "name": "_address",
          "type": "address"
        }
      ],
      "name": "getBalance",
      "outputs": [
        {
          "internalType": "uint256",
          "name": "",
          "type": "uint256"
        }
      ],
      "stateMutability": "view",
      "type": "function"
    },
    {
      "inputs": [],
      "name": "getIsPreSaleLive",
      "outputs": [
        {
          "internalType": "bool",
          "name": "",
          "type": "bool"
        }
      ],
      "stateMutability": "view",
      "type": "function"
    },
    {
      "inputs": [],
      "name": "getTotalPresaleTokensRemaining",
      "outputs": [
        {
          "internalType": "uint256",
          "name": "",
          "type": "uint256"
        }
      ],
      "stateMutability": "view",
      "type": "function"
    },
    {
      "inputs": [],
      "name": "isPreSaleLive",
      "outputs": [
        {
          "internalType": "bool",
          "name": "",
          "type": "bool"
        }
      ],
      "stateMutability": "view",
      "type": "function"
    },
    {
      "inputs": [],
      "name": "maxTokenPerUser",
      "outputs": [
        {
          "internalType": "uint256",
          "name": "",
          "type": "uint256"
        }
      ],
      "stateMutability": "view",
      "type": "function"
    },
    {
      "inputs": [],
      "name": "owner",
      "outputs": [
        {
          "internalType": "address payable",
          "name": "",
          "type": "address"
        }
      ],
      "stateMutability": "view",
      "type": "function"
    },
    {
      "inputs": [],
      "name": "presalePrice",
      "outputs": [
        {
          "internalType": "uint256",
          "name": "",
          "type": "uint256"
        }
      ],
      "stateMutability": "view",
      "type": "function"
    },
    {
      "inputs": [],
      "name": "toggleAreTokensClaimable",
      "outputs": [],
      "stateMutability": "nonpayable",
      "type": "function"
    },
    {
      "inputs": [],
      "name": "togglePreSaleStatus",
      "outputs": [],
      "stateMutability": "nonpayable",
      "type": "function"
    },
    {
      "inputs": [],
      "name": "token",
      "outputs": [
        {
          "internalType": "contract IBCROC",
          "name": "",
          "type": "address"
        }
      ],
      "stateMutability": "view",
      "type": "function"
    },
    {
      "inputs": [],
      "name": "totalPresaleTokensRemaining",
      "outputs": [
        {
          "internalType": "uint256",
          "name": "",
          "type": "uint256"
        }
      ],
      "stateMutability": "view",
      "type": "function"
    },
    {
      "inputs": [],
      "name": "withdraw",
      "outputs": [],
      "stateMutability": "nonpayable",
      "type": "function"
    }
  ],
  "bytecode": "0x60806040523480156200001157600080fd5b506040516200143c3803806200143c833981810160405281019062000037919062000169565b336000806101000a81548173ffffffffffffffffffffffffffffffffffffffff021916908373ffffffffffffffffffffffffffffffffffffffff16021790555080600460026101000a81548173ffffffffffffffffffffffffffffffffffffffff021916908373ffffffffffffffffffffffffffffffffffffffff16021790555062061a806001819055506af8277896582678ac0000006002819055506002546003819055506000600460006101000a81548160ff021916908315150217905550506200019b565b600080fd5b600073ffffffffffffffffffffffffffffffffffffffff82169050919050565b6000620001318262000104565b9050919050565b620001438162000124565b81146200014f57600080fd5b50565b600081519050620001638162000138565b92915050565b600060208284031215620001825762000181620000ff565b5b6000620001928482850162000152565b91505092915050565b61129180620001ab6000396000f3fe6080604052600436106100fd5760003560e01c80638da5cb5b11610095578063f27bcf9311610064578063f27bcf93146102b9578063f2ac49f2146102e4578063f8b2cb4f1461030f578063fc0c546a1461034c578063fe9674d414610377576100fd565b80638da5cb5b1461020d5780639cc6956614610238578063b670a49e14610263578063f21852d01461028e576100fd565b80633c33eec4116100d15780633c33eec41461019d5780633ccfd60b146101b457806348c54b9d146101cb57806350c50710146101e2576100fd565b80620e7fa8146101025780631146202b1461012d57806327e235e3146101445780633610724e14610181575b600080fd5b34801561010e57600080fd5b506101176103a2565b6040516101249190610aac565b60405180910390f35b34801561013957600080fd5b506101426103a8565b005b34801561015057600080fd5b5061016b60048036038101906101669190610b2a565b610462565b6040516101789190610aac565b60405180910390f35b61019b60048036038101906101969190610b83565b61047a565b005b3480156101a957600080fd5b506101b2610669565b005b3480156101c057600080fd5b506101c9610723565b005b3480156101d757600080fd5b506101e061081a565b005b3480156101ee57600080fd5b506101f7610996565b6040516102049190610aac565b60405180910390f35b34801561021957600080fd5b5061022261099c565b60405161022f9190610bd1565b60405180910390f35b34801561024457600080fd5b5061024d6109c0565b60405161025a9190610c07565b60405180910390f35b34801561026f57600080fd5b506102786109d7565b6040516102859190610aac565b60405180910390f35b34801561029a57600080fd5b506102a36109e1565b6040516102b09190610c07565b60405180910390f35b3480156102c557600080fd5b506102ce6109f4565b6040516102db9190610c07565b60405180910390f35b3480156102f057600080fd5b506102f9610a07565b6040516103069190610aac565b60405180910390f35b34801561031b57600080fd5b5061033660048036038101906103319190610b2a565b610a0d565b6040516103439190610aac565b60405180910390f35b34801561035857600080fd5b50610361610a56565b60405161036e9190610c81565b60405180910390f35b34801561038357600080fd5b5061038c610a7c565b6040516103999190610c07565b60405180910390f35b60015481565b60008054906101000a900473ffffffffffffffffffffffffffffffffffffffff1673ffffffffffffffffffffffffffffffffffffffff163373ffffffffffffffffffffffffffffffffffffffff1614610436576040517f08c379a000000000000000000000000000000000000000000000000000000000815260040161042d90610d1f565b60405180910390fd5b600460019054906101000a900460ff1615600460016101000a81548160ff021916908315150217905550565b60056020528060005260406000206000915090505481565b600460009054906101000a900460ff166104c9576040517f08c379a00000000000000000000000000000000000000000000000000000000081526004016104c090610d8b565b60405180910390fd5b80600154346104d89190610dda565b14610518576040517f08c379a000000000000000000000000000000000000000000000000000000000815260040161050f90610eb4565b60405180910390fd5b60035481600560003373ffffffffffffffffffffffffffffffffffffffff1673ffffffffffffffffffffffffffffffffffffffff168152602001908152602001600020546105669190610ed4565b11156105a7576040517f08c379a000000000000000000000000000000000000000000000000000000000815260040161059e90610f7a565b60405180910390fd5b6000816002546105b79190610f9a565b116105f7576040517f08c379a00000000000000000000000000000000000000000000000000000000081526004016105ee9061101a565b60405180910390fd5b80600260008282546106099190610f9a565b9250508190555080600560003373ffffffffffffffffffffffffffffffffffffffff1673ffffffffffffffffffffffffffffffffffffffff168152602001908152602001600020600082825461065f9190610ed4565b9250508190555050565b60008054906101000a900473ffffffffffffffffffffffffffffffffffffffff1673ffffffffffffffffffffffffffffffffffffffff163373ffffffffffffffffffffffffffffffffffffffff16146106f7576040517f08c379a00000000000000000000000000000000000000000000000000000000081526004016106ee906110ac565b60405180910390fd5b600460009054906101000a900460ff1615600460006101000a81548160ff021916908315150217905550565b60008054906101000a900473ffffffffffffffffffffffffffffffffffffffff1673ffffffffffffffffffffffffffffffffffffffff163373ffffffffffffffffffffffffffffffffffffffff16146107b1576040517f08c379a00000000000000000000000000000000000000000000000000000000081526004016107a89061113e565b60405180910390fd5b60008054906101000a900473ffffffffffffffffffffffffffffffffffffffff1673ffffffffffffffffffffffffffffffffffffffff166108fc479081150290604051600060405180830381858888f19350505050158015610817573d6000803e3d6000fd5b50565b600460019054906101000a900460ff16610869576040517f08c379a0000000000000000000000000000000000000000000000000000000008152600401610860906111aa565b60405180910390fd5b6000600560003373ffffffffffffffffffffffffffffffffffffffff1673ffffffffffffffffffffffffffffffffffffffff1681526020019081526020016000205490506000600560003373ffffffffffffffffffffffffffffffffffffffff1673ffffffffffffffffffffffffffffffffffffffff16815260200190815260200160002081905550600460029054906101000a900473ffffffffffffffffffffffffffffffffffffffff1673ffffffffffffffffffffffffffffffffffffffff1663a9059cbb33836040518363ffffffff1660e01b815260040161094f9291906111d9565b6020604051808303816000875af115801561096e573d6000803e3d6000fd5b505050506040513d601f19601f82011682018060405250810190610992919061122e565b5050565b60035481565b60008054906101000a900473ffffffffffffffffffffffffffffffffffffffff1681565b6000600460009054906101000a900460ff16905090565b6000600254905090565b600460009054906101000a900460ff1681565b600460019054906101000a900460ff1681565b60025481565b6000600560008373ffffffffffffffffffffffffffffffffffffffff1673ffffffffffffffffffffffffffffffffffffffff168152602001908152602001600020549050919050565b600460029054906101000a900473ffffffffffffffffffffffffffffffffffffffff1681565b6000600460019054906101000a900460ff16905090565b6000819050919050565b610aa681610a93565b82525050565b6000602082019050610ac16000830184610a9d565b92915050565b600080fd5b600073ffffffffffffffffffffffffffffffffffffffff82169050919050565b6000610af782610acc565b9050919050565b610b0781610aec565b8114610b1257600080fd5b50565b600081359050610b2481610afe565b92915050565b600060208284031215610b4057610b3f610ac7565b5b6000610b4e84828501610b15565b91505092915050565b610b6081610a93565b8114610b6b57600080fd5b50565b600081359050610b7d81610b57565b92915050565b600060208284031215610b9957610b98610ac7565b5b6000610ba784828501610b6e565b91505092915050565b6000610bbb82610acc565b9050919050565b610bcb81610bb0565b82525050565b6000602082019050610be66000830184610bc2565b92915050565b60008115159050919050565b610c0181610bec565b82525050565b6000602082019050610c1c6000830184610bf8565b92915050565b6000819050919050565b6000610c47610c42610c3d84610acc565b610c22565b610acc565b9050919050565b6000610c5982610c2c565b9050919050565b6000610c6b82610c4e565b9050919050565b610c7b81610c60565b82525050565b6000602082019050610c966000830184610c72565b92915050565b600082825260208201905092915050565b7f4f6e6c7920746865206f776e65722063616e20746f67676c6520746f6b656e7360008201527f20636c61696d6162696c69747900000000000000000000000000000000000000602082015250565b6000610d09602d83610c9c565b9150610d1482610cad565b604082019050919050565b60006020820190508181036000830152610d3881610cfc565b9050919050565b7f70726573616c65206973206e6f74206c69766500000000000000000000000000600082015250565b6000610d75601383610c9c565b9150610d8082610d3f565b602082019050919050565b60006020820190508181036000830152610da481610d68565b9050919050565b7f4e487b7100000000000000000000000000000000000000000000000000000000600052601160045260246000fd5b6000610de582610a93565b9150610df083610a93565b9250828202610dfe81610a93565b91508282048414831517610e1557610e14610dab565b5b5092915050565b7f416d6f756e74206d75737420626520657175616c20746f207468652070726f6460008201527f756374206f662074686520616d6f756e74206f6620746f6b656e7320616e642060208201527f7468652070726573616c65207072696365000000000000000000000000000000604082015250565b6000610e9e605183610c9c565b9150610ea982610e1c565b606082019050919050565b60006020820190508181036000830152610ecd81610e91565b9050919050565b6000610edf82610a93565b9150610eea83610a93565b9250828201905080821115610f0257610f01610dab565b5b92915050565b7f45786365656465642074686520746f74616c20616d6f756e74206f6620746f6b60008201527f656e7320666f722073616c650000000000000000000000000000000000000000602082015250565b6000610f64602c83610c9c565b9150610f6f82610f08565b604082019050919050565b60006020820190508181036000830152610f9381610f57565b9050919050565b6000610fa582610a93565b9150610fb083610a93565b9250828203905081811115610fc857610fc7610dab565b5b92915050565b7f4e6f7420656e6f75676820746f6b656e732072656d61696e696e670000000000600082015250565b6000611004601b83610c9c565b915061100f82610fce565b602082019050919050565b6000602082019050818103600083015261103381610ff7565b9050919050565b7f4f6e6c7920746865206f776e65722063616e20746f67676c652070726573616c60008201527f6520737461747573000000000000000000000000000000000000000000000000602082015250565b6000611096602883610c9c565b91506110a18261103a565b604082019050919050565b600060208201905081810360008301526110c581611089565b9050919050565b7f4f6e6c7920746865206f776e65722063616e2077697468647261772066756e6460008201527f7300000000000000000000000000000000000000000000000000000000000000602082015250565b6000611128602183610c9c565b9150611133826110cc565b604082019050919050565b600060208201905081810360008301526111578161111b565b9050919050565b7f546f6b656e7320617265206e6f7420636c61696d61626c657320796574000000600082015250565b6000611194601d83610c9c565b915061119f8261115e565b602082019050919050565b600060208201905081810360008301526111c381611187565b9050919050565b6111d381610aec565b82525050565b60006040820190506111ee60008301856111ca565b6111fb6020830184610a9d565b9392505050565b61120b81610bec565b811461121657600080fd5b50565b60008151905061122881611202565b92915050565b60006020828403121561124457611243610ac7565b5b600061125284828501611219565b9150509291505056fea26469706673582212201ffae71e9d83bfaa3047fcd9cc85447bea9f035056a22228e8304b26d2501b4e64736f6c63430008180033",
  "linkReferences": {},
  "deployedLinkReferences": {}
}