{
  "_format": "hh-sol-artifact-1",
  "contractName": "PresaleVesting",
  "sourceName": "contracts/PresaleVesting.sol",
  "abi": [
    {
      "inputs": [
        {
          "internalType": "address",
          "name": "_tokenAddress",
          "type": "address"
        }
      ],
      "stateMutability": "nonpayable",
      "type": "constructor"
    },
    {
      "inputs": [
        {
          "internalType": "address",
          "name": "",
          "type": "address"
        }
      ],
      "name": "balances",
      "outputs": [
        {
          "internalType": "uint256",
          "name": "",
          "type": "uint256"
        }
      ],
      "stateMutability": "view",
      "type": "function"
    },
    {
      "inputs": [],
      "name": "burnRemainingTokens",
      "outputs": [],
      "stateMutability": "nonpayable",
      "type": "function"
    },
    {
      "inputs": [
        {
          "internalType": "uint256",
          "name": "_amount",
          "type": "uint256"
        }
      ],
      "name": "buyTokens",
      "outputs": [],
      "stateMutability": "payable",
      "type": "function"
    },
    {
      "inputs": [
        {
          "internalType": "address",
          "name": "_address",
          "type": "address"
        }
      ],
      "name": "getBalance",
      "outputs": [
        {
          "internalType": "uint256",
          "name": "",
          "type": "uint256"
        }
      ],
      "stateMutability": "view",
      "type": "function"
    },
    {
      "inputs": [],
      "name": "getIsPreSaleLive",
      "outputs": [
        {
          "internalType": "bool",
          "name": "",
          "type": "bool"
        }
      ],
      "stateMutability": "view",
      "type": "function"
    },
    {
      "inputs": [
        {
          "internalType": "address",
          "name": "wallet",
          "type": "address"
        }
      ],
      "name": "getTokensReleased",
      "outputs": [
        {
          "internalType": "uint256",
          "name": "",
          "type": "uint256"
        }
      ],
      "stateMutability": "view",
      "type": "function"
    },
    {
      "inputs": [
        {
          "internalType": "address",
          "name": "wallet",
          "type": "address"
        }
      ],
      "name": "getTokensVested",
      "outputs": [
        {
          "internalType": "uint256",
          "name": "",
          "type": "uint256"
        }
      ],
      "stateMutability": "view",
      "type": "function"
    },
    {
      "inputs": [],
      "name": "getTotalPresaleTokensRemaining",
      "outputs": [
        {
          "internalType": "uint256",
          "name": "",
          "type": "uint256"
        }
      ],
      "stateMutability": "view",
      "type": "function"
    },
    {
      "inputs": [],
      "name": "getVestingDuration",
      "outputs": [
        {
          "internalType": "uint256",
          "name": "",
          "type": "uint256"
        }
      ],
      "stateMutability": "view",
      "type": "function"
    },
    {
      "inputs": [],
      "name": "getVestingStartTime",
      "outputs": [
        {
          "internalType": "uint256",
          "name": "",
          "type": "uint256"
        }
      ],
      "stateMutability": "view",
      "type": "function"
    },
    {
      "inputs": [],
      "name": "isPreSaleLive",
      "outputs": [
        {
          "internalType": "bool",
          "name": "",
          "type": "bool"
        }
      ],
      "stateMutability": "view",
      "type": "function"
    },
    {
      "inputs": [],
      "name": "maxTokenPerUser",
      "outputs": [
        {
          "internalType": "uint256",
          "name": "",
          "type": "uint256"
        }
      ],
      "stateMutability": "view",
      "type": "function"
    },
    {
      "inputs": [],
      "name": "owner",
      "outputs": [
        {
          "internalType": "address payable",
          "name": "",
          "type": "address"
        }
      ],
      "stateMutability": "view",
      "type": "function"
    },
    {
      "inputs": [],
      "name": "presalePrice",
      "outputs": [
        {
          "internalType": "uint256",
          "name": "",
          "type": "uint256"
        }
      ],
      "stateMutability": "view",
      "type": "function"
    },
    {
      "inputs": [],
      "name": "release",
      "outputs": [],
      "stateMutability": "nonpayable",
      "type": "function"
    },
    {
      "inputs": [],
      "name": "togglePreSaleStatus",
      "outputs": [],
      "stateMutability": "nonpayable",
      "type": "function"
    },
    {
      "inputs": [],
      "name": "token",
      "outputs": [
        {
          "internalType": "contract IBCROC",
          "name": "",
          "type": "address"
        }
      ],
      "stateMutability": "view",
      "type": "function"
    },
    {
      "inputs": [],
      "name": "totalPresaleTokensRemaining",
      "outputs": [
        {
          "internalType": "uint256",
          "name": "",
          "type": "uint256"
        }
      ],
      "stateMutability": "view",
      "type": "function"
    },
    {
      "inputs": [],
      "name": "vestingDuration",
      "outputs": [
        {
          "internalType": "uint256",
          "name": "",
          "type": "uint256"
        }
      ],
      "stateMutability": "view",
      "type": "function"
    },
    {
      "inputs": [],
      "name": "vestingStartTime",
      "outputs": [
        {
          "internalType": "uint256",
          "name": "",
          "type": "uint256"
        }
      ],
      "stateMutability": "view",
      "type": "function"
    },
    {
      "inputs": [],
      "name": "withdraw",
      "outputs": [],
      "stateMutability": "nonpayable",
      "type": "function"
    }
  ],
  "bytecode": "0x60806040523480156200001157600080fd5b50604051620018f9380380620018f9833981810160405281019062000037919062000183565b336000806101000a81548173ffffffffffffffffffffffffffffffffffffffff021916908373ffffffffffffffffffffffffffffffffffffffff16021790555080600460016101000a81548173ffffffffffffffffffffffffffffffffffffffff021916908373ffffffffffffffffffffffffffffffffffffffff16021790555062061a806001819055506af8277896582678ac0000006002819055506a027b46536c66c8e30000006003819055506000600460006101000a81548160ff021916908315150217905550426006819055506276a70060078190555050620001b5565b600080fd5b600073ffffffffffffffffffffffffffffffffffffffff82169050919050565b60006200014b826200011e565b9050919050565b6200015d816200013e565b81146200016957600080fd5b50565b6000815190506200017d8162000152565b92915050565b6000602082840312156200019c576200019b62000119565b5b6000620001ac848285016200016c565b91505092915050565b61173480620001c56000396000f3fe6080604052600436106101295760003560e01c80638307dc98116100ab578063a8660a781161006f578063a8660a781461038a578063b670a49e146103b5578063f21852d0146103e0578063f2ac49f21461040b578063f8b2cb4f14610436578063fc0c546a1461047357610129565b80638307dc98146102db57806383408d731461030657806386d1a69f1461031d5780638da5cb5b146103345780639cc695661461035f57610129565b80633610724e116100f25780633610724e146102295780633c33eec4146102455780633ccfd60b1461025c578063500ff48f1461027357806350c50710146102b057610129565b80620e7fa81461012e5780631514617e1461015957806327e235e3146101845780632fccfbd2146101c157806335c3d018146101ec575b600080fd5b34801561013a57600080fd5b5061014361049e565b6040516101509190610eb8565b60405180910390f35b34801561016557600080fd5b5061016e6104a4565b60405161017b9190610eb8565b60405180910390f35b34801561019057600080fd5b506101ab60048036038101906101a69190610f36565b6104aa565b6040516101b89190610eb8565b60405180910390f35b3480156101cd57600080fd5b506101d66104c2565b6040516101e39190610eb8565b60405180910390f35b3480156101f857600080fd5b50610213600480360381019061020e9190610f36565b6104cc565b6040516102209190610eb8565b60405180910390f35b610243600480360381019061023e9190610f8f565b610515565b005b34801561025157600080fd5b5061025a610807565b005b34801561026857600080fd5b506102716108c1565b005b34801561027f57600080fd5b5061029a60048036038101906102959190610f36565b6109b8565b6040516102a79190610eb8565b60405180910390f35b3480156102bc57600080fd5b506102c5610a01565b6040516102d29190610eb8565b60405180910390f35b3480156102e757600080fd5b506102f0610a07565b6040516102fd9190610eb8565b60405180910390f35b34801561031257600080fd5b5061031b610a11565b005b34801561032957600080fd5b50610332610c19565b005b34801561034057600080fd5b50610349610dcc565b6040516103569190610fdd565b60405180910390f35b34801561036b57600080fd5b50610374610df0565b6040516103819190611013565b60405180910390f35b34801561039657600080fd5b5061039f610e07565b6040516103ac9190610eb8565b60405180910390f35b3480156103c157600080fd5b506103ca610e0d565b6040516103d79190610eb8565b60405180910390f35b3480156103ec57600080fd5b506103f5610e17565b6040516104029190611013565b60405180910390f35b34801561041757600080fd5b50610420610e2a565b60405161042d9190610eb8565b60405180910390f35b34801561044257600080fd5b5061045d60048036038101906104589190610f36565b610e30565b60405161046a9190610eb8565b60405180910390f35b34801561047f57600080fd5b50610488610e79565b604051610495919061108d565b60405180910390f35b60015481565b60075481565b60056020528060005260406000206000915090505481565b6000600754905090565b6000600860008373ffffffffffffffffffffffffffffffffffffffff1673ffffffffffffffffffffffffffffffffffffffff168152602001908152602001600020549050919050565b600460009054906101000a900460ff16610564576040517f08c379a000000000000000000000000000000000000000000000000000000000815260040161055b90611105565b60405180910390fd5b80600154346105739190611154565b146105b3576040517f08c379a00000000000000000000000000000000000000000000000000000000081526004016105aa9061122e565b60405180910390fd5b60035481600560003373ffffffffffffffffffffffffffffffffffffffff1673ffffffffffffffffffffffffffffffffffffffff16815260200190815260200160002054610601919061124e565b1115610642576040517f08c379a0000000000000000000000000000000000000000000000000000000008152600401610639906112f4565b60405180910390fd5b6000816002546106529190611314565b11610692576040517f08c379a000000000000000000000000000000000000000000000000000000000815260040161068990611394565b60405180910390fd5b80600260008282546106a49190611314565b9250508190555080600560003373ffffffffffffffffffffffffffffffffffffffff1673ffffffffffffffffffffffffffffffffffffffff16815260200190815260200160002060008282546106fa919061124e565b92505081905550600060048261071091906113e3565b905060038161071f9190611154565b600860003373ffffffffffffffffffffffffffffffffffffffff1673ffffffffffffffffffffffffffffffffffffffff16815260200190815260200160002081905550600460019054906101000a900473ffffffffffffffffffffffffffffffffffffffff1673ffffffffffffffffffffffffffffffffffffffff1663a9059cbb33836040518363ffffffff1660e01b81526004016107bf929190611423565b6020604051808303816000875af11580156107de573d6000803e3d6000fd5b505050506040513d601f19601f820116820180604052508101906108029190611478565b505050565b60008054906101000a900473ffffffffffffffffffffffffffffffffffffffff1673ffffffffffffffffffffffffffffffffffffffff163373ffffffffffffffffffffffffffffffffffffffff1614610895576040517f08c379a000000000000000000000000000000000000000000000000000000000815260040161088c90611517565b60405180910390fd5b600460009054906101000a900460ff1615600460006101000a81548160ff021916908315150217905550565b60008054906101000a900473ffffffffffffffffffffffffffffffffffffffff1673ffffffffffffffffffffffffffffffffffffffff163373ffffffffffffffffffffffffffffffffffffffff161461094f576040517f08c379a0000000000000000000000000000000000000000000000000000000008152600401610946906115a9565b60405180910390fd5b60008054906101000a900473ffffffffffffffffffffffffffffffffffffffff1673ffffffffffffffffffffffffffffffffffffffff166108fc479081150290604051600060405180830381858888f193505050501580156109b5573d6000803e3d6000fd5b50565b6000600960008373ffffffffffffffffffffffffffffffffffffffff1673ffffffffffffffffffffffffffffffffffffffff168152602001908152602001600020549050919050565b60035481565b6000600654905090565b60008054906101000a900473ffffffffffffffffffffffffffffffffffffffff1673ffffffffffffffffffffffffffffffffffffffff163373ffffffffffffffffffffffffffffffffffffffff1614610a9f576040517f08c379a0000000000000000000000000000000000000000000000000000000008152600401610a9690611615565b60405180910390fd5b600460009054906101000a900460ff1615610aef576040517f08c379a0000000000000000000000000000000000000000000000000000000008152600401610ae690611681565b60405180910390fd5b600460019054906101000a900473ffffffffffffffffffffffffffffffffffffffff1673ffffffffffffffffffffffffffffffffffffffff166342966c68600460019054906101000a900473ffffffffffffffffffffffffffffffffffffffff1673ffffffffffffffffffffffffffffffffffffffff166370a08231306040518263ffffffff1660e01b8152600401610b8891906116a1565b602060405180830381865afa158015610ba5573d6000803e3d6000fd5b505050506040513d601f19601f82011682018060405250810190610bc991906116d1565b6040518263ffffffff1660e01b8152600401610be59190610eb8565b600060405180830381600087803b158015610bff57600080fd5b505af1158015610c13573d6000803e3d6000fd5b50505050565b600060065442610c299190611314565b90506000600960003373ffffffffffffffffffffffffffffffffffffffff1673ffffffffffffffffffffffffffffffffffffffff16815260200190815260200160002054600754600860003373ffffffffffffffffffffffffffffffffffffffff1673ffffffffffffffffffffffffffffffffffffffff1681526020019081526020016000205484610cbb9190611154565b610cc591906113e3565b610ccf9190611314565b905080600960003373ffffffffffffffffffffffffffffffffffffffff1673ffffffffffffffffffffffffffffffffffffffff1681526020019081526020016000206000828254610d20919061124e565b92505081905550600460019054906101000a900473ffffffffffffffffffffffffffffffffffffffff1673ffffffffffffffffffffffffffffffffffffffff1663a9059cbb33836040518363ffffffff1660e01b8152600401610d84929190611423565b6020604051808303816000875af1158015610da3573d6000803e3d6000fd5b505050506040513d601f19601f82011682018060405250810190610dc79190611478565b505050565b60008054906101000a900473ffffffffffffffffffffffffffffffffffffffff1681565b6000600460009054906101000a900460ff16905090565b60065481565b6000600254905090565b600460009054906101000a900460ff1681565b60025481565b6000600560008373ffffffffffffffffffffffffffffffffffffffff1673ffffffffffffffffffffffffffffffffffffffff168152602001908152602001600020549050919050565b600460019054906101000a900473ffffffffffffffffffffffffffffffffffffffff1681565b6000819050919050565b610eb281610e9f565b82525050565b6000602082019050610ecd6000830184610ea9565b92915050565b600080fd5b600073ffffffffffffffffffffffffffffffffffffffff82169050919050565b6000610f0382610ed8565b9050919050565b610f1381610ef8565b8114610f1e57600080fd5b50565b600081359050610f3081610f0a565b92915050565b600060208284031215610f4c57610f4b610ed3565b5b6000610f5a84828501610f21565b91505092915050565b610f6c81610e9f565b8114610f7757600080fd5b50565b600081359050610f8981610f63565b92915050565b600060208284031215610fa557610fa4610ed3565b5b6000610fb384828501610f7a565b91505092915050565b6000610fc782610ed8565b9050919050565b610fd781610fbc565b82525050565b6000602082019050610ff26000830184610fce565b92915050565b60008115159050919050565b61100d81610ff8565b82525050565b60006020820190506110286000830184611004565b92915050565b6000819050919050565b600061105361104e61104984610ed8565b61102e565b610ed8565b9050919050565b600061106582611038565b9050919050565b60006110778261105a565b9050919050565b6110878161106c565b82525050565b60006020820190506110a2600083018461107e565b92915050565b600082825260208201905092915050565b7f70726573616c65206973206e6f74206c69766500000000000000000000000000600082015250565b60006110ef6013836110a8565b91506110fa826110b9565b602082019050919050565b6000602082019050818103600083015261111e816110e2565b9050919050565b7f4e487b7100000000000000000000000000000000000000000000000000000000600052601160045260246000fd5b600061115f82610e9f565b915061116a83610e9f565b925082820261117881610e9f565b9150828204841483151761118f5761118e611125565b5b5092915050565b7f416d6f756e74206d75737420626520657175616c20746f207468652070726f6460008201527f756374206f662074686520616d6f756e74206f6620746f6b656e7320616e642060208201527f7468652070726573616c65207072696365000000000000000000000000000000604082015250565b60006112186051836110a8565b915061122382611196565b606082019050919050565b600060208201905081810360008301526112478161120b565b9050919050565b600061125982610e9f565b915061126483610e9f565b925082820190508082111561127c5761127b611125565b5b92915050565b7f45786365656465642074686520746f74616c20616d6f756e74206f6620746f6b60008201527f656e7320666f722073616c650000000000000000000000000000000000000000602082015250565b60006112de602c836110a8565b91506112e982611282565b604082019050919050565b6000602082019050818103600083015261130d816112d1565b9050919050565b600061131f82610e9f565b915061132a83610e9f565b925082820390508181111561134257611341611125565b5b92915050565b7f4e6f7420656e6f75676820746f6b656e732072656d61696e696e670000000000600082015250565b600061137e601b836110a8565b915061138982611348565b602082019050919050565b600060208201905081810360008301526113ad81611371565b9050919050565b7f4e487b7100000000000000000000000000000000000000000000000000000000600052601260045260246000fd5b60006113ee82610e9f565b91506113f983610e9f565b925082611409576114086113b4565b5b828204905092915050565b61141d81610ef8565b82525050565b60006040820190506114386000830185611414565b6114456020830184610ea9565b9392505050565b61145581610ff8565b811461146057600080fd5b50565b6000815190506114728161144c565b92915050565b60006020828403121561148e5761148d610ed3565b5b600061149c84828501611463565b91505092915050565b7f4f6e6c7920746865206f776e65722063616e20746f67676c652070726573616c60008201527f6500000000000000000000000000000000000000000000000000000000000000602082015250565b60006115016021836110a8565b915061150c826114a5565b604082019050919050565b60006020820190508181036000830152611530816114f4565b9050919050565b7f4f6e6c7920746865206f776e65722063616e2077697468647261772066756e6460008201527f7300000000000000000000000000000000000000000000000000000000000000602082015250565b60006115936021836110a8565b915061159e82611537565b604082019050919050565b600060208201905081810360008301526115c281611586565b9050919050565b7f4f6e6c7920746865206f776e65722063616e206275726e20746f6b656e730000600082015250565b60006115ff601e836110a8565b915061160a826115c9565b602082019050919050565b6000602082019050818103600083015261162e816115f2565b9050919050565b7f50726553616c65206973206c6976650000000000000000000000000000000000600082015250565b600061166b600f836110a8565b915061167682611635565b602082019050919050565b6000602082019050818103600083015261169a8161165e565b9050919050565b60006020820190506116b66000830184611414565b92915050565b6000815190506116cb81610f63565b92915050565b6000602082840312156116e7576116e6610ed3565b5b60006116f5848285016116bc565b9150509291505056fea264697066735822122074661e424b188986c7100dfb055468fd497a8e52c9efe18fa5ad5481ac41bb5d64736f6c63430008180033",
  "linkReferences": {},
  "deployedLinkReferences": {}
}