{
  "_format": "hh-sol-artifact-1",
  "contractName": "TokenVesting",
  "sourceName": "contracts/Vesting.sol",
  "abi": [
    {
      "inputs": [
        {
          "internalType": "contract IERC20",
          "name": "_token",
          "type": "address"
        },
        {
          "internalType": "address",
          "name": "_beneficiary",
          "type": "address"
        },
        {
          "internalType": "uint256",
          "name": "_vestingStartTime",
          "type": "uint256"
        },
        {
          "internalType": "uint256",
          "name": "_vestingDuration",
          "type": "uint256"
        },
        {
          "internalType": "uint256",
          "name": "_totalTokens",
          "type": "uint256"
        }
      ],
      "stateMutability": "nonpayable",
      "type": "constructor"
    },
    {
      "inputs": [],
      "name": "beneficiary",
      "outputs": [
        {
          "internalType": "address",
          "name": "",
          "type": "address"
        }
      ],
      "stateMutability": "view",
      "type": "function"
    },
    {
      "inputs": [],
      "name": "release",
      "outputs": [],
      "stateMutability": "nonpayable",
      "type": "function"
    },
    {
      "inputs": [],
      "name": "token",
      "outputs": [
        {
          "internalType": "contract IERC20",
          "name": "",
          "type": "address"
        }
      ],
      "stateMutability": "view",
      "type": "function"
    },
    {
      "inputs": [],
      "name": "totalTokens",
      "outputs": [
        {
          "internalType": "uint256",
          "name": "",
          "type": "uint256"
        }
      ],
      "stateMutability": "view",
      "type": "function"
    },
    {
      "inputs": [],
      "name": "vestingDuration",
      "outputs": [
        {
          "internalType": "uint256",
          "name": "",
          "type": "uint256"
        }
      ],
      "stateMutability": "view",
      "type": "function"
    },
    {
      "inputs": [],
      "name": "vestingStartTime",
      "outputs": [
        {
          "internalType": "uint256",
          "name": "",
          "type": "uint256"
        }
      ],
      "stateMutability": "view",
      "type": "function"
    }
  ],
  "bytecode": "0x60806040523480156200001157600080fd5b50604051620009c0380380620009c08339818101604052810190620000379190620001c2565b846000806101000a81548173ffffffffffffffffffffffffffffffffffffffff021916908373ffffffffffffffffffffffffffffffffffffffff16021790555083600160006101000a81548173ffffffffffffffffffffffffffffffffffffffff021916908373ffffffffffffffffffffffffffffffffffffffff16021790555082600281905550816003819055508060048190555050505050506200024a565b600080fd5b600073ffffffffffffffffffffffffffffffffffffffff82169050919050565b60006200010a82620000dd565b9050919050565b60006200011e82620000fd565b9050919050565b620001308162000111565b81146200013c57600080fd5b50565b600081519050620001508162000125565b92915050565b6200016181620000fd565b81146200016d57600080fd5b50565b600081519050620001818162000156565b92915050565b6000819050919050565b6200019c8162000187565b8114620001a857600080fd5b50565b600081519050620001bc8162000191565b92915050565b600080600080600060a08688031215620001e157620001e0620000d8565b5b6000620001f1888289016200013f565b9550506020620002048882890162000170565b94505060406200021788828901620001ab565b93505060606200022a88828901620001ab565b92505060806200023d88828901620001ab565b9150509295509295909350565b610766806200025a6000396000f3fe608060405234801561001057600080fd5b50600436106100625760003560e01c80631514617e1461006757806338af3eed146100855780637e1c0c09146100a357806386d1a69f146100c1578063a8660a78146100cb578063fc0c546a146100e9575b600080fd5b61006f610107565b60405161007c9190610352565b60405180910390f35b61008d61010d565b60405161009a91906103ae565b60405180910390f35b6100ab610133565b6040516100b89190610352565b60405180910390f35b6100c9610139565b005b6100d361030f565b6040516100e09190610352565b60405180910390f35b6100f1610315565b6040516100fe9190610428565b60405180910390f35b60035481565b600160009054906101000a900473ffffffffffffffffffffffffffffffffffffffff1681565b60045481565b60025442101561017e576040517f08c379a0000000000000000000000000000000000000000000000000000000008152600401610175906104a0565b60405180910390fd5b60006002544261018e91906104ef565b90506000600354600454836101a39190610523565b6101ad9190610594565b90506004548111156101f4576040517f08c379a00000000000000000000000000000000000000000000000000000000081526004016101eb90610611565b60405180910390fd5b60008160045461020491906104ef565b905060008111610249576040517f08c379a00000000000000000000000000000000000000000000000000000000081526004016102409061067d565b60405180910390fd5b60008054906101000a900473ffffffffffffffffffffffffffffffffffffffff1673ffffffffffffffffffffffffffffffffffffffff1663a9059cbb600160009054906101000a900473ffffffffffffffffffffffffffffffffffffffff16836040518363ffffffff1660e01b81526004016102c692919061069d565b6020604051808303816000875af11580156102e5573d6000803e3d6000fd5b505050506040513d601f19601f820116820180604052508101906103099190610703565b50505050565b60025481565b60008054906101000a900473ffffffffffffffffffffffffffffffffffffffff1681565b6000819050919050565b61034c81610339565b82525050565b60006020820190506103676000830184610343565b92915050565b600073ffffffffffffffffffffffffffffffffffffffff82169050919050565b60006103988261036d565b9050919050565b6103a88161038d565b82525050565b60006020820190506103c3600083018461039f565b92915050565b6000819050919050565b60006103ee6103e96103e48461036d565b6103c9565b61036d565b9050919050565b6000610400826103d3565b9050919050565b6000610412826103f5565b9050919050565b61042281610407565b82525050565b600060208201905061043d6000830184610419565b92915050565b600082825260208201905092915050565b7f56657374696e6720686173206e6f742073746172746564207965740000000000600082015250565b600061048a601b83610443565b915061049582610454565b602082019050919050565b600060208201905081810360008301526104b98161047d565b9050919050565b7f4e487b7100000000000000000000000000000000000000000000000000000000600052601160045260246000fd5b60006104fa82610339565b915061050583610339565b925082820390508181111561051d5761051c6104c0565b5b92915050565b600061052e82610339565b915061053983610339565b925082820261054781610339565b9150828204841483151761055e5761055d6104c0565b5b5092915050565b7f4e487b7100000000000000000000000000000000000000000000000000000000600052601260045260246000fd5b600061059f82610339565b91506105aa83610339565b9250826105ba576105b9610565565b5b828204905092915050565b7f416c6c20746f6b656e73206861766520616c7265616479207665737465640000600082015250565b60006105fb601e83610443565b9150610606826105c5565b602082019050919050565b6000602082019050818103600083015261062a816105ee565b9050919050565b7f4e6f20746f6b656e73206c65667420746f2072656c6561736500000000000000600082015250565b6000610667601983610443565b915061067282610631565b602082019050919050565b600060208201905081810360008301526106968161065a565b9050919050565b60006040820190506106b2600083018561039f565b6106bf6020830184610343565b9392505050565b600080fd5b60008115159050919050565b6106e0816106cb565b81146106eb57600080fd5b50565b6000815190506106fd816106d7565b92915050565b600060208284031215610719576107186106c6565b5b6000610727848285016106ee565b9150509291505056fea26469706673582212208f776a1a82110d06c1750e2a9b56791729948337b901e4c933a1623841e66f0e64736f6c63430008180033",
  "linkReferences": {},
  "deployedLinkReferences": {}
}